{"abi":[{"type":"constructor","inputs":[],"stateMutability":"nonpayable"},{"type":"fallback","stateMutability":"payable"},{"type":"receive","stateMutability":"payable"},{"type":"function","name":"funders","inputs":[{"name":"","type":"address","internalType":"address"}],"outputs":[{"name":"","type":"uint256","internalType":"uint256"}],"stateMutability":"view"},{"type":"function","name":"getContractBalance","inputs":[],"outputs":[{"name":"","type":"uint256","internalType":"uint256"}],"stateMutability":"view"},{"type":"function","name":"getMyDeposit","inputs":[],"outputs":[{"name":"","type":"uint256","internalType":"uint256"}],"stateMutability":"view"},{"type":"function","name":"getUserBalance","inputs":[{"name":"user","type":"address","internalType":"address"}],"outputs":[{"name":"","type":"uint256","internalType":"uint256"}],"stateMutability":"view"},{"type":"function","name":"owner","inputs":[],"outputs":[{"name":"","type":"address","internalType":"address"}],"stateMutability":"view"},{"type":"function","name":"sendETHtoContract","inputs":[],"outputs":[],"stateMutability":"payable"},{"type":"function","name":"sendETHtoUser","inputs":[{"name":"_to","type":"address","internalType":"address payable"}],"outputs":[],"stateMutability":"payable"},{"type":"function","name":"withdraw","inputs":[],"outputs":[],"stateMutability":"nonpayable"},{"type":"event","name":"Deposited","inputs":[{"name":"sender","type":"address","indexed":true,"internalType":"address"},{"name":"amount","type":"uint256","indexed":false,"internalType":"uint256"}],"anonymous":false},{"type":"event","name":"Withdrawn","inputs":[{"name":"amount","type":"uint256","indexed":false,"internalType":"uint256"}],"anonymous":false}],"bytecode":{"object":"0x6080604052348015600e575f5ffd5b505f80546001600160a01b031916331790556104648061002d5f395ff3fe60806040526004361061007e575f3560e01c80636f9fb98a1161004d5780636f9fb98a1461014a5780638da5cb5b1461015e578063b1263daa14610194578063f4135992146101a7576100a9565b8063031b3677146100c75780633ccfd60b14610105578063424959371461011b5780634773489214610123576100a9565b366100a957335f90815260016020526040812080543492906100a19084906103d0565b925050819055005b335f90815260016020526040812080543492906100a19084906103d0565b3480156100d2575f5ffd5b506100f26100e136600461040c565b60016020525f908152604090205481565b6040519081526020015b60405180910390f35b348015610110575f5ffd5b506101196101c7565b005b61011961028d565b34801561012e575f5ffd5b506100f261013d36600461040c565b6001600160a01b03163190565b348015610155575f5ffd5b506100f26102e7565b348015610169575f5ffd5b505f5461017c906001600160a01b031681565b6040516001600160a01b0390911681526020016100fc565b6101196101a236600461040c565b610336565b3480156101b2575f5ffd5b50335f908152600160205260409020546100f2565b5f546001600160a01b031633146102155760405162461bcd60e51b815260206004820152600d60248201526c2737ba103a34329037bbb732b960991b60448201526064015b60405180910390fd5b5f61021e6102e7565b5f80546040519293506001600160a01b03169183156108fc0291849190818181858888f19350505050158015610256573d5f5f3e3d5ffd5b506040518181527f430648de173157e069201c943adb2d4e340e7cf5b27b1b09c9cb852f03d63b569060200160405180910390a150565b335f90815260016020526040812080543492906102ab9084906103d0565b909155505060405134815233907f2da466a7b24304f47e87fa2e1e5a81b9831ce54fec19055ce277ca2f39ba42c49060200160405180910390a2565b5f80546001600160a01b031633146103315760405162461bcd60e51b815260206004820152600d60248201526c2737ba103a34329037bbb732b960991b604482015260640161020c565b504790565b5f816001600160a01b0316346040515f6040518083038185875af1925050503d805f811461037f576040519150601f19603f3d011682016040523d82523d5f602084013e610384565b606091505b50509050806103cc5760405162461bcd60e51b81526020600482015260146024820152732330b4b632b2103a379039b2b7321022ba3432b960611b604482015260640161020c565b5050565b808201808211156103ef57634e487b7160e01b5f52601160045260245ffd5b92915050565b6001600160a01b0381168114610409575f5ffd5b50565b5f6020828403121561041c575f5ffd5b8135610427816103f5565b939250505056fea264697066735822122065a518625e02b6c3edd12b9196558c1a8c037e5f30df798d0e7fd41451811ca264736f6c634300081c0033","linkReferences":{}},"methodIdentifiers":{"funders(address)":"031b3677","getContractBalance()":"6f9fb98a","getMyDeposit()":"f4135992","getUserBalance(address)":"47734892","owner()":"8da5cb5b","sendETHtoContract()":"42495937","sendETHtoUser(address)":"b1263daa","withdraw()":"3ccfd60b"},"id":16}